{
  "_format": "hh-sol-artifact-1",
  "contractName": "Market",
  "sourceName": "contracts/Market.sol",
  "abi": [
    {
      "inputs": [
        {
          "internalType": "address",
          "name": "_addressProvider",
          "type": "address"
        }
      ],
      "stateMutability": "nonpayable",
      "type": "constructor"
    },
    {
      "inputs": [],
      "name": "POOL",
      "outputs": [
        {
          "internalType": "contract IPool",
          "name": "",
          "type": "address"
        }
      ],
      "stateMutability": "view",
      "type": "function"
    },
    {
      "inputs": [
        {
          "internalType": "address",
          "name": "_tokenAddress",
          "type": "address"
        },
        {
          "internalType": "uint256",
          "name": "_amount",
          "type": "uint256"
        },
        {
          "internalType": "uint8",
          "name": "_interestRateMode",
          "type": "uint8"
        }
      ],
      "name": "borrowFromLiquidity",
      "outputs": [],
      "stateMutability": "nonpayable",
      "type": "function"
    },
    {
      "inputs": [],
      "name": "getBalanceALink",
      "outputs": [
        {
          "internalType": "uint256",
          "name": "",
          "type": "uint256"
        }
      ],
      "stateMutability": "view",
      "type": "function"
    },
    {
      "inputs": [
        {
          "internalType": "address",
          "name": "_atokenAddress",
          "type": "address"
        }
      ],
      "name": "getBalanceAtoken",
      "outputs": [
        {
          "internalType": "uint256",
          "name": "",
          "type": "uint256"
        }
      ],
      "stateMutability": "view",
      "type": "function"
    },
    {
      "inputs": [],
      "name": "getBalanceLink",
      "outputs": [
        {
          "internalType": "uint256",
          "name": "",
          "type": "uint256"
        }
      ],
      "stateMutability": "view",
      "type": "function"
    },
    {
      "inputs": [
        {
          "internalType": "address",
          "name": "_tokenAddress",
          "type": "address"
        }
      ],
      "name": "getBalancetoken",
      "outputs": [
        {
          "internalType": "uint256",
          "name": "",
          "type": "uint256"
        }
      ],
      "stateMutability": "view",
      "type": "function"
    },
    {
      "inputs": [
        {
          "internalType": "address",
          "name": "_userAddress",
          "type": "address"
        }
      ],
      "name": "getUserAccountData",
      "outputs": [
        {
          "internalType": "uint256",
          "name": "totalCollateralBase",
          "type": "uint256"
        },
        {
          "internalType": "uint256",
          "name": "totalDebtBase",
          "type": "uint256"
        },
        {
          "internalType": "uint256",
          "name": "availableBorrowsBase",
          "type": "uint256"
        },
        {
          "internalType": "uint256",
          "name": "currentLiquidationThreshold",
          "type": "uint256"
        },
        {
          "internalType": "uint256",
          "name": "ltv",
          "type": "uint256"
        },
        {
          "internalType": "uint256",
          "name": "healthFactor",
          "type": "uint256"
        }
      ],
      "stateMutability": "view",
      "type": "function"
    },
    {
      "inputs": [
        {
          "internalType": "address",
          "name": "_tokenAddress",
          "type": "address"
        },
        {
          "internalType": "uint256",
          "name": "_amount",
          "type": "uint256"
        },
        {
          "internalType": "uint8",
          "name": "_interestRateMode",
          "type": "uint8"
        }
      ],
      "name": "repaytoLiquidity",
      "outputs": [],
      "stateMutability": "nonpayable",
      "type": "function"
    },
    {
      "inputs": [
        {
          "internalType": "address",
          "name": "_tokenAddress",
          "type": "address"
        },
        {
          "internalType": "uint256",
          "name": "_amount",
          "type": "uint256"
        }
      ],
      "name": "supplyLiquidity",
      "outputs": [],
      "stateMutability": "nonpayable",
      "type": "function"
    },
    {
      "inputs": [
        {
          "internalType": "address",
          "name": "_tokenAddress",
          "type": "address"
        },
        {
          "internalType": "uint256",
          "name": "_amount",
          "type": "uint256"
        }
      ],
      "name": "withdrawLiquidity",
      "outputs": [
        {
          "internalType": "uint256",
          "name": "",
          "type": "uint256"
        }
      ],
      "stateMutability": "nonpayable",
      "type": "function"
    },
    {
      "stateMutability": "payable",
      "type": "receive"
    }
  ],
  "bytecode": "0x61012060405273e7ec1b0015eb2adeedb1b7f9f1ce82f9dad6df0873ffffffffffffffffffffffffffffffffffffffff1660c09073ffffffffffffffffffffffffffffffffffffffff16815250738a0e31de20651fe58a369fd6f76c21a8ff7f8d4273ffffffffffffffffffffffffffffffffffffffff1660e09073ffffffffffffffffffffffffffffffffffffffff1681525073d21a6990e47a07574dd6a876f6b5557c990d586773ffffffffffffffffffffffffffffffffffffffff166101009073ffffffffffffffffffffffffffffffffffffffff16815250348015620000e857600080fd5b50604051620013ac380380620013ac83398181016040528101906200010e919062000321565b8073ffffffffffffffffffffffffffffffffffffffff1660808173ffffffffffffffffffffffffffffffffffffffff168152505060805173ffffffffffffffffffffffffffffffffffffffff1663026b1d5f6040518163ffffffff1660e01b8152600401602060405180830381865afa15801562000190573d6000803e3d6000fd5b505050506040513d601f19601f82011682018060405250810190620001b6919062000321565b73ffffffffffffffffffffffffffffffffffffffff1660a08173ffffffffffffffffffffffffffffffffffffffff1681525050336000806101000a81548173ffffffffffffffffffffffffffffffffffffffff021916908373ffffffffffffffffffffffffffffffffffffffff16021790555060e051600160006101000a81548173ffffffffffffffffffffffffffffffffffffffff021916908373ffffffffffffffffffffffffffffffffffffffff16021790555061010051600260006101000a81548173ffffffffffffffffffffffffffffffffffffffff021916908373ffffffffffffffffffffffffffffffffffffffff1602179055505062000353565b600080fd5b600073ffffffffffffffffffffffffffffffffffffffff82169050919050565b6000620002e982620002bc565b9050919050565b620002fb81620002dc565b81146200030757600080fd5b50565b6000815190506200031b81620002f0565b92915050565b6000602082840312156200033a5762000339620002b7565b5b60006200034a848285016200030a565b91505092915050565b60805160a05160c05160e05161010051610ffa620003b2600039600050506000505060006107730152600081816103380152818161052901528181610565015281816106a20152818161083701526108db015260005050610ffa6000f3fe6080604052600436106100955760003560e01c8063869cda0711610059578063869cda0714610188578063a506b4a0146101c5578063b39e3771146101ee578063bf92857c14610217578063dbeb86e5146102595761009c565b806306d47de9146100a1578063136d6ea5146100de57806371a2d4ed146101095780637535d246146101345780637f9950a01461015f5761009c565b3661009c57005b600080fd5b3480156100ad57600080fd5b506100c860048036038101906100c39190610aa9565b610296565b6040516100d59190610af8565b60405180910390f35b3480156100ea57600080fd5b506100f36103e1565b6040516101009190610af8565b60405180910390f35b34801561011557600080fd5b5061011e610484565b60405161012b9190610af8565b60405180910390f35b34801561014057600080fd5b50610149610527565b6040516101569190610b72565b60405180910390f35b34801561016b57600080fd5b5061018660048036038101906101819190610bc6565b61054b565b005b34801561019457600080fd5b506101af60048036038101906101aa9190610c19565b610600565b6040516101bc9190610af8565b60405180910390f35b3480156101d157600080fd5b506101ec60048036038101906101e79190610bc6565b610688565b005b3480156101fa57600080fd5b5061021560048036038101906102109190610aa9565b61073d565b005b34801561022357600080fd5b5061023e60048036038101906102399190610c19565b6108d0565b60405161025096959493929190610c46565b60405180910390f35b34801561026557600080fd5b50610280600480360381019061027b9190610c19565b610988565b60405161028d9190610af8565b60405180910390f35b60008060009054906101000a900473ffffffffffffffffffffffffffffffffffffffff1673ffffffffffffffffffffffffffffffffffffffff163373ffffffffffffffffffffffffffffffffffffffff1614610327576040517f08c379a000000000000000000000000000000000000000000000000000000000815260040161031e90610d2a565b60405180910390fd5b6000839050600083905060003390507f000000000000000000000000000000000000000000000000000000000000000073ffffffffffffffffffffffffffffffffffffffff166369328dec8484846040518463ffffffff1660e01b815260040161039393929190610d59565b6020604051808303816000875af11580156103b2573d6000803e3d6000fd5b505050506040513d601f19601f820116820180604052508101906103d69190610da5565b935050505092915050565b6000600160009054906101000a900473ffffffffffffffffffffffffffffffffffffffff1673ffffffffffffffffffffffffffffffffffffffff166370a08231336040518263ffffffff1660e01b815260040161043e9190610dd2565b602060405180830381865afa15801561045b573d6000803e3d6000fd5b505050506040513d601f19601f8201168201806040525081019061047f9190610da5565b905090565b6000600260009054906101000a900473ffffffffffffffffffffffffffffffffffffffff1673ffffffffffffffffffffffffffffffffffffffff166370a08231336040518263ffffffff1660e01b81526004016104e19190610dd2565b602060405180830381865afa1580156104fe573d6000803e3d6000fd5b505050506040513d601f19601f820116820180604052508101906105229190610da5565b905090565b7f000000000000000000000000000000000000000000000000000000000000000081565b6000839050600083905060008360ff1690506000803390507f000000000000000000000000000000000000000000000000000000000000000073ffffffffffffffffffffffffffffffffffffffff1663a415bcad86868686866040518663ffffffff1660e01b81526004016105c4959493929190610e0a565b600060405180830381600087803b1580156105de57600080fd5b505af11580156105f2573d6000803e3d6000fd5b505050505050505050505050565b6000808290508073ffffffffffffffffffffffffffffffffffffffff166370a08231336040518263ffffffff1660e01b815260040161063f9190610dd2565b602060405180830381865afa15801561065c573d6000803e3d6000fd5b505050506040513d601f19601f820116820180604052508101906106809190610da5565b915050919050565b6000839050600083905060008360ff1690506000803390507f000000000000000000000000000000000000000000000000000000000000000073ffffffffffffffffffffffffffffffffffffffff1663a415bcad86868686866040518663ffffffff1660e01b8152600401610701959493929190610e0a565b600060405180830381600087803b15801561071b57600080fd5b505af115801561072f573d6000803e3d6000fd5b505050505050505050505050565b60008290506000829050600033905060008086905060008173ffffffffffffffffffffffffffffffffffffffff1663dd62ed3e337f00000000000000000000000000000000000000000000000000000000000000006040518363ffffffff1660e01b81526004016107af929190610e5d565b602060405180830381865afa1580156107cc573d6000803e3d6000fd5b505050506040513d601f19601f820116820180604052508101906107f09190610da5565b905086811015610835576040517f08c379a000000000000000000000000000000000000000000000000000000000815260040161082c90610ed2565b60405180910390fd5b7f000000000000000000000000000000000000000000000000000000000000000073ffffffffffffffffffffffffffffffffffffffff1663617ba037878787876040518563ffffffff1660e01b81526004016108949493929190610ef2565b600060405180830381600087803b1580156108ae57600080fd5b505af11580156108c2573d6000803e3d6000fd5b505050505050505050505050565b6000806000806000807f000000000000000000000000000000000000000000000000000000000000000073ffffffffffffffffffffffffffffffffffffffff1663bf92857c886040518263ffffffff1660e01b81526004016109329190610dd2565b60c060405180830381865afa15801561094f573d6000803e3d6000fd5b505050506040513d601f19601f820116820180604052508101906109739190610f37565b95509550955095509550955091939550919395565b6000808290508073ffffffffffffffffffffffffffffffffffffffff166370a08231336040518263ffffffff1660e01b81526004016109c79190610dd2565b602060405180830381865afa1580156109e4573d6000803e3d6000fd5b505050506040513d601f19601f82011682018060405250810190610a089190610da5565b915050919050565b600080fd5b600073ffffffffffffffffffffffffffffffffffffffff82169050919050565b6000610a4082610a15565b9050919050565b610a5081610a35565b8114610a5b57600080fd5b50565b600081359050610a6d81610a47565b92915050565b6000819050919050565b610a8681610a73565b8114610a9157600080fd5b50565b600081359050610aa381610a7d565b92915050565b60008060408385031215610ac057610abf610a10565b5b6000610ace85828601610a5e565b9250506020610adf85828601610a94565b9150509250929050565b610af281610a73565b82525050565b6000602082019050610b0d6000830184610ae9565b92915050565b6000819050919050565b6000610b38610b33610b2e84610a15565b610b13565b610a15565b9050919050565b6000610b4a82610b1d565b9050919050565b6000610b5c82610b3f565b9050919050565b610b6c81610b51565b82525050565b6000602082019050610b876000830184610b63565b92915050565b600060ff82169050919050565b610ba381610b8d565b8114610bae57600080fd5b50565b600081359050610bc081610b9a565b92915050565b600080600060608486031215610bdf57610bde610a10565b5b6000610bed86828701610a5e565b9350506020610bfe86828701610a94565b9250506040610c0f86828701610bb1565b9150509250925092565b600060208284031215610c2f57610c2e610a10565b5b6000610c3d84828501610a5e565b91505092915050565b600060c082019050610c5b6000830189610ae9565b610c686020830188610ae9565b610c756040830187610ae9565b610c826060830186610ae9565b610c8f6080830185610ae9565b610c9c60a0830184610ae9565b979650505050505050565b600082825260208201905092915050565b7f4f6e6c792074686520636f6e7472616374206f776e65722063616e2063616c6c60008201527f20746869732066756e6374696f6e000000000000000000000000000000000000602082015250565b6000610d14602e83610ca7565b9150610d1f82610cb8565b604082019050919050565b60006020820190508181036000830152610d4381610d07565b9050919050565b610d5381610a35565b82525050565b6000606082019050610d6e6000830186610d4a565b610d7b6020830185610ae9565b610d886040830184610d4a565b949350505050565b600081519050610d9f81610a7d565b92915050565b600060208284031215610dbb57610dba610a10565b5b6000610dc984828501610d90565b91505092915050565b6000602082019050610de76000830184610d4a565b92915050565b600061ffff82169050919050565b610e0481610ded565b82525050565b600060a082019050610e1f6000830188610d4a565b610e2c6020830187610ae9565b610e396040830186610ae9565b610e466060830185610dfb565b610e536080830184610d4a565b9695505050505050565b6000604082019050610e726000830185610d4a565b610e7f6020830184610d4a565b9392505050565b7f22436865636b2074686520746f6b656e20616c6c6f77616e6365220000000000600082015250565b6000610ebc601b83610ca7565b9150610ec782610e86565b602082019050919050565b60006020820190508181036000830152610eeb81610eaf565b9050919050565b6000608082019050610f076000830187610d4a565b610f146020830186610ae9565b610f216040830185610d4a565b610f2e6060830184610dfb565b95945050505050565b60008060008060008060c08789031215610f5457610f53610a10565b5b6000610f6289828a01610d90565b9650506020610f7389828a01610d90565b9550506040610f8489828a01610d90565b9450506060610f9589828a01610d90565b9350506080610fa689828a01610d90565b92505060a0610fb789828a01610d90565b915050929550929550929556fea2646970667358221220a895d8ca52e8ea47782e29f853b66c371f37176b50e1295408bef79eebf4451064736f6c634300080a0033",
  "linkReferences": {},
  "deployedLinkReferences": {}
}